{
  "_format": "hh-sol-artifact-1",
  "contractName": "DrugNFT",
  "sourceName": "contracts/DrugNFT.sol",
  "abi": [
    {
      "inputs": [
        {
          "internalType": "address",
          "name": "_userAccessControl",
          "type": "address"
        }
      ],
      "stateMutability": "nonpayable",
      "type": "constructor"
    },
    {
      "inputs": [
        {
          "internalType": "address",
          "name": "sender",
          "type": "address"
        },
        {
          "internalType": "uint256",
          "name": "tokenId",
          "type": "uint256"
        },
        {
          "internalType": "address",
          "name": "owner",
          "type": "address"
        }
      ],
      "name": "ERC721IncorrectOwner",
      "type": "error"
    },
    {
      "inputs": [
        {
          "internalType": "address",
          "name": "operator",
          "type": "address"
        },
        {
          "internalType": "uint256",
          "name": "tokenId",
          "type": "uint256"
        }
      ],
      "name": "ERC721InsufficientApproval",
      "type": "error"
    },
    {
      "inputs": [
        {
          "internalType": "address",
          "name": "approver",
          "type": "address"
        }
      ],
      "name": "ERC721InvalidApprover",
      "type": "error"
    },
    {
      "inputs": [
        {
          "internalType": "address",
          "name": "operator",
          "type": "address"
        }
      ],
      "name": "ERC721InvalidOperator",
      "type": "error"
    },
    {
      "inputs": [
        {
          "internalType": "address",
          "name": "owner",
          "type": "address"
        }
      ],
      "name": "ERC721InvalidOwner",
      "type": "error"
    },
    {
      "inputs": [
        {
          "internalType": "address",
          "name": "receiver",
          "type": "address"
        }
      ],
      "name": "ERC721InvalidReceiver",
      "type": "error"
    },
    {
      "inputs": [
        {
          "internalType": "address",
          "name": "sender",
          "type": "address"
        }
      ],
      "name": "ERC721InvalidSender",
      "type": "error"
    },
    {
      "inputs": [
        {
          "internalType": "uint256",
          "name": "tokenId",
          "type": "uint256"
        }
      ],
      "name": "ERC721NonexistentToken",
      "type": "error"
    },
    {
      "anonymous": false,
      "inputs": [
        {
          "indexed": true,
          "internalType": "address",
          "name": "owner",
          "type": "address"
        },
        {
          "indexed": true,
          "internalType": "address",
          "name": "approved",
          "type": "address"
        },
        {
          "indexed": true,
          "internalType": "uint256",
          "name": "tokenId",
          "type": "uint256"
        }
      ],
      "name": "Approval",
      "type": "event"
    },
    {
      "anonymous": false,
      "inputs": [
        {
          "indexed": true,
          "internalType": "address",
          "name": "owner",
          "type": "address"
        },
        {
          "indexed": true,
          "internalType": "address",
          "name": "operator",
          "type": "address"
        },
        {
          "indexed": false,
          "internalType": "bool",
          "name": "approved",
          "type": "bool"
        }
      ],
      "name": "ApprovalForAll",
      "type": "event"
    },
    {
      "anonymous": false,
      "inputs": [
        {
          "indexed": false,
          "internalType": "uint256",
          "name": "_fromTokenId",
          "type": "uint256"
        },
        {
          "indexed": false,
          "internalType": "uint256",
          "name": "_toTokenId",
          "type": "uint256"
        }
      ],
      "name": "BatchMetadataUpdate",
      "type": "event"
    },
    {
      "anonymous": false,
      "inputs": [
        {
          "indexed": false,
          "internalType": "uint256",
          "name": "tokenId",
          "type": "uint256"
        },
        {
          "indexed": false,
          "internalType": "string",
          "name": "batchId",
          "type": "string"
        },
        {
          "indexed": false,
          "internalType": "bytes32",
          "name": "merkleRoot",
          "type": "bytes32"
        },
        {
          "indexed": false,
          "internalType": "string",
          "name": "metadataURI",
          "type": "string"
        },
        {
          "indexed": false,
          "internalType": "address",
          "name": "manufacturer",
          "type": "address"
        }
      ],
      "name": "BatchMinted",
      "type": "event"
    },
    {
      "anonymous": false,
      "inputs": [
        {
          "indexed": false,
          "internalType": "uint256",
          "name": "_tokenId",
          "type": "uint256"
        }
      ],
      "name": "MetadataUpdate",
      "type": "event"
    },
    {
      "anonymous": false,
      "inputs": [
        {
          "indexed": false,
          "internalType": "uint256",
          "name": "tokenId",
          "type": "uint256"
        },
        {
          "indexed": false,
          "internalType": "string",
          "name": "stripId",
          "type": "string"
        },
        {
          "indexed": false,
          "internalType": "address",
          "name": "verifier",
          "type": "address"
        },
        {
          "indexed": false,
          "internalType": "uint256",
          "name": "timestamp",
          "type": "uint256"
        }
      ],
      "name": "StripVerified",
      "type": "event"
    },
    {
      "anonymous": false,
      "inputs": [
        {
          "indexed": true,
          "internalType": "address",
          "name": "from",
          "type": "address"
        },
        {
          "indexed": true,
          "internalType": "address",
          "name": "to",
          "type": "address"
        },
        {
          "indexed": true,
          "internalType": "uint256",
          "name": "tokenId",
          "type": "uint256"
        }
      ],
      "name": "Transfer",
      "type": "event"
    },
    {
      "inputs": [
        {
          "internalType": "address",
          "name": "to",
          "type": "address"
        },
        {
          "internalType": "uint256",
          "name": "tokenId",
          "type": "uint256"
        }
      ],
      "name": "approve",
      "outputs": [],
      "stateMutability": "nonpayable",
      "type": "function"
    },
    {
      "inputs": [
        {
          "internalType": "address",
          "name": "owner",
          "type": "address"
        }
      ],
      "name": "balanceOf",
      "outputs": [
        {
          "internalType": "uint256",
          "name": "",
          "type": "uint256"
        }
      ],
      "stateMutability": "view",
      "type": "function"
    },
    {
      "inputs": [
        {
          "internalType": "uint256",
          "name": "",
          "type": "uint256"
        }
      ],
      "name": "batches",
      "outputs": [
        {
          "internalType": "bytes32",
          "name": "merkleRoot",
          "type": "bytes32"
        },
        {
          "internalType": "string",
          "name": "metadataURI",
          "type": "string"
        },
        {
          "internalType": "address",
          "name": "manufacturer",
          "type": "address"
        },
        {
          "internalType": "uint256",
          "name": "timestamp",
          "type": "uint256"
        }
      ],
      "stateMutability": "view",
      "type": "function"
    },
    {
      "inputs": [
        {
          "internalType": "uint256",
          "name": "tokenId",
          "type": "uint256"
        }
      ],
      "name": "getApproved",
      "outputs": [
        {
          "internalType": "address",
          "name": "",
          "type": "address"
        }
      ],
      "stateMutability": "view",
      "type": "function"
    },
    {
      "inputs": [
        {
          "internalType": "uint256",
          "name": "tokenId",
          "type": "uint256"
        }
      ],
      "name": "getBatch",
      "outputs": [
        {
          "components": [
            {
              "internalType": "bytes32",
              "name": "merkleRoot",
              "type": "bytes32"
            },
            {
              "internalType": "string",
              "name": "metadataURI",
              "type": "string"
            },
            {
              "internalType": "address",
              "name": "manufacturer",
              "type": "address"
            },
            {
              "internalType": "uint256",
              "name": "timestamp",
              "type": "uint256"
            }
          ],
          "internalType": "struct DrugNFT.Batch",
          "name": "",
          "type": "tuple"
        }
      ],
      "stateMutability": "view",
      "type": "function"
    },
    {
      "inputs": [
        {
          "internalType": "uint256",
          "name": "tokenId",
          "type": "uint256"
        }
      ],
      "name": "getBatchId",
      "outputs": [
        {
          "internalType": "string",
          "name": "",
          "type": "string"
        }
      ],
      "stateMutability": "view",
      "type": "function"
    },
    {
      "inputs": [
        {
          "internalType": "address",
          "name": "owner",
          "type": "address"
        },
        {
          "internalType": "address",
          "name": "operator",
          "type": "address"
        }
      ],
      "name": "isApprovedForAll",
      "outputs": [
        {
          "internalType": "bool",
          "name": "",
          "type": "bool"
        }
      ],
      "stateMutability": "view",
      "type": "function"
    },
    {
      "inputs": [
        {
          "internalType": "string",
          "name": "batchId",
          "type": "string"
        }
      ],
      "name": "isBatchExists",
      "outputs": [
        {
          "internalType": "bool",
          "name": "",
          "type": "bool"
        }
      ],
      "stateMutability": "view",
      "type": "function"
    },
    {
      "inputs": [
        {
          "internalType": "uint256",
          "name": "",
          "type": "uint256"
        }
      ],
      "name": "isBatchMinted",
      "outputs": [
        {
          "internalType": "bool",
          "name": "",
          "type": "bool"
        }
      ],
      "stateMutability": "view",
      "type": "function"
    },
    {
      "inputs": [
        {
          "internalType": "string",
          "name": "batchId",
          "type": "string"
        },
        {
          "internalType": "bytes32",
          "name": "merkleRoot",
          "type": "bytes32"
        },
        {
          "internalType": "string",
          "name": "metadataURI",
          "type": "string"
        }
      ],
      "name": "mintBatch",
      "outputs": [
        {
          "internalType": "uint256",
          "name": "",
          "type": "uint256"
        }
      ],
      "stateMutability": "nonpayable",
      "type": "function"
    },
    {
      "inputs": [],
      "name": "name",
      "outputs": [
        {
          "internalType": "string",
          "name": "",
          "type": "string"
        }
      ],
      "stateMutability": "view",
      "type": "function"
    },
    {
      "inputs": [
        {
          "internalType": "uint256",
          "name": "tokenId",
          "type": "uint256"
        }
      ],
      "name": "ownerOf",
      "outputs": [
        {
          "internalType": "address",
          "name": "",
          "type": "address"
        }
      ],
      "stateMutability": "view",
      "type": "function"
    },
    {
      "inputs": [
        {
          "internalType": "address",
          "name": "from",
          "type": "address"
        },
        {
          "internalType": "address",
          "name": "to",
          "type": "address"
        },
        {
          "internalType": "uint256",
          "name": "tokenId",
          "type": "uint256"
        }
      ],
      "name": "safeTransferFrom",
      "outputs": [],
      "stateMutability": "nonpayable",
      "type": "function"
    },
    {
      "inputs": [
        {
          "internalType": "address",
          "name": "from",
          "type": "address"
        },
        {
          "internalType": "address",
          "name": "to",
          "type": "address"
        },
        {
          "internalType": "uint256",
          "name": "tokenId",
          "type": "uint256"
        },
        {
          "internalType": "bytes",
          "name": "data",
          "type": "bytes"
        }
      ],
      "name": "safeTransferFrom",
      "outputs": [],
      "stateMutability": "nonpayable",
      "type": "function"
    },
    {
      "inputs": [
        {
          "internalType": "address",
          "name": "operator",
          "type": "address"
        },
        {
          "internalType": "bool",
          "name": "approved",
          "type": "bool"
        }
      ],
      "name": "setApprovalForAll",
      "outputs": [],
      "stateMutability": "nonpayable",
      "type": "function"
    },
    {
      "inputs": [
        {
          "internalType": "bytes4",
          "name": "interfaceId",
          "type": "bytes4"
        }
      ],
      "name": "supportsInterface",
      "outputs": [
        {
          "internalType": "bool",
          "name": "",
          "type": "bool"
        }
      ],
      "stateMutability": "view",
      "type": "function"
    },
    {
      "inputs": [],
      "name": "symbol",
      "outputs": [
        {
          "internalType": "string",
          "name": "",
          "type": "string"
        }
      ],
      "stateMutability": "view",
      "type": "function"
    },
    {
      "inputs": [
        {
          "internalType": "uint256",
          "name": "tokenId",
          "type": "uint256"
        }
      ],
      "name": "tokenURI",
      "outputs": [
        {
          "internalType": "string",
          "name": "",
          "type": "string"
        }
      ],
      "stateMutability": "view",
      "type": "function"
    },
    {
      "inputs": [
        {
          "internalType": "address",
          "name": "from",
          "type": "address"
        },
        {
          "internalType": "address",
          "name": "to",
          "type": "address"
        },
        {
          "internalType": "uint256",
          "name": "tokenId",
          "type": "uint256"
        }
      ],
      "name": "transferFrom",
      "outputs": [],
      "stateMutability": "nonpayable",
      "type": "function"
    },
    {
      "inputs": [
        {
          "internalType": "string",
          "name": "",
          "type": "string"
        }
      ],
      "name": "usedStrip",
      "outputs": [
        {
          "internalType": "bool",
          "name": "",
          "type": "bool"
        }
      ],
      "stateMutability": "view",
      "type": "function"
    },
    {
      "inputs": [],
      "name": "userAccessControl",
      "outputs": [
        {
          "internalType": "contract UserAccessControl",
          "name": "",
          "type": "address"
        }
      ],
      "stateMutability": "view",
      "type": "function"
    },
    {
      "inputs": [
        {
          "internalType": "uint256",
          "name": "tokenId",
          "type": "uint256"
        },
        {
          "internalType": "string",
          "name": "stripID",
          "type": "string"
        },
        {
          "internalType": "bytes32[]",
          "name": "proof",
          "type": "bytes32[]"
        }
      ],
      "name": "verifyStrip",
      "outputs": [
        {
          "internalType": "bool",
          "name": "",
          "type": "bool"
        }
      ],
      "stateMutability": "nonpayable",
      "type": "function"
    }
  ],
  "bytecode": "0x608060405234801561001057600080fd5b50604051613a78380380613a788339818101604052810190610032919061016a565b6040518060400160405280600781526020017f447275674e4654000000000000000000000000000000000000000000000000008152506040518060400160405280600481526020017f445255470000000000000000000000000000000000000000000000000000000081525081600090816100ad91906103e7565b5080600190816100bd91906103e7565b50505080600760006101000a81548173ffffffffffffffffffffffffffffffffffffffff021916908373ffffffffffffffffffffffffffffffffffffffff160217905550506104b9565b600080fd5b600073ffffffffffffffffffffffffffffffffffffffff82169050919050565b60006101378261010c565b9050919050565b6101478161012c565b811461015257600080fd5b50565b6000815190506101648161013e565b92915050565b6000602082840312156101805761017f610107565b5b600061018e84828501610155565b91505092915050565b600081519050919050565b7f4e487b7100000000000000000000000000000000000000000000000000000000600052604160045260246000fd5b7f4e487b7100000000000000000000000000000000000000000000000000000000600052602260045260246000fd5b6000600282049050600182168061021857607f821691505b60208210810361022b5761022a6101d1565b5b50919050565b60008190508160005260206000209050919050565b60006020601f8301049050919050565b600082821b905092915050565b6000600883026102937fffffffffffffffffffffffffffffffffffffffffffffffffffffffffffffffff82610256565b61029d8683610256565b95508019841693508086168417925050509392505050565b6000819050919050565b6000819050919050565b60006102e46102df6102da846102b5565b6102bf565b6102b5565b9050919050565b6000819050919050565b6102fe836102c9565b61031261030a826102eb565b848454610263565b825550505050565b600090565b61032761031a565b6103328184846102f5565b505050565b5b818110156103565761034b60008261031f565b600181019050610338565b5050565b601f82111561039b5761036c81610231565b61037584610246565b81016020851015610384578190505b61039861039085610246565b830182610337565b50505b505050565b600082821c905092915050565b60006103be600019846008026103a0565b1980831691505092915050565b60006103d783836103ad565b9150826002028217905092915050565b6103f082610197565b67ffffffffffffffff811115610409576104086101a2565b5b6104138254610200565b61041e82828561035a565b600060209050601f831160018114610451576000841561043f578287015190505b61044985826103cb565b8655506104b1565b601f19841661045f86610231565b60005b8281101561048757848901518255600182019150602085019450602081019050610462565b868310156104a457848901516104a0601f8916826103ad565b8355505b6001600288020188555050505b505050505050565b6135b0806104c86000396000f3fe608060405234801561001057600080fd5b50600436106101425760003560e01c806370a08231116100b8578063ab6a7b9b1161007c578063ab6a7b9b146103d3578063b32c4d8d14610403578063b88d4fde14610436578063c735c60414610452578063c87b56dd14610470578063e985e9c5146104a057610142565b806370a082311461030957806378227cb01461033957806393d6509f1461036957806395d89b4114610399578063a22cb465146103b757610142565b80632f35c0c11161010a5780632f35c0c1146101fd578063374acb1b1461022d57806342842e0e1461025d57806353a22f68146102795780635ac44282146102a95780636352211e146102d957610142565b806301ffc9a71461014757806306fdde0314610177578063081812fc14610195578063095ea7b3146101c557806323b872dd146101e1575b600080fd5b610161600480360381019061015c919061239d565b6104d0565b60405161016e91906123e5565b60405180910390f35b61017f610531565b60405161018c9190612490565b60405180910390f35b6101af60048036038101906101aa91906124e8565b6105c3565b6040516101bc9190612556565b60405180910390f35b6101df60048036038101906101da919061259d565b6105df565b005b6101fb60048036038101906101f691906125dd565b6105f5565b005b61021760048036038101906102129190612765565b6106f7565b60405161022491906123e5565b60405180910390f35b61024760048036038101906102429190612765565b61072d565b60405161025491906123e5565b60405180910390f35b610277600480360381019061027291906125dd565b610785565b005b610293600480360381019061028e919061280e565b6107a5565b6040516102a091906123e5565b60405180910390f35b6102c360048036038101906102be91906124e8565b610ad3565b6040516102d09190612982565b60405180910390f35b6102f360048036038101906102ee91906124e8565b610c5c565b6040516103009190612556565b60405180910390f35b610323600480360381019061031e91906129a4565b610c6e565b60405161033091906129e0565b60405180910390f35b610353600480360381019061034e91906124e8565b610d28565b6040516103609190612490565b60405180910390f35b610383600480360381019061037e91906124e8565b610db9565b60405161039091906123e5565b60405180910390f35b6103a1610dd9565b6040516103ae9190612490565b60405180910390f35b6103d160048036038101906103cc9190612a27565b610e6b565b005b6103ed60048036038101906103e89190612a93565b610e81565b6040516103fa91906129e0565b60405180910390f35b61041d600480360381019061041891906124e8565b611059565b60405161042d9493929190612b2d565b60405180910390f35b610450600480360381019061044b9190612c1a565b611131565b005b61045a611156565b6040516104679190612cfc565b60405180910390f35b61048a600480360381019061048591906124e8565b61117c565b6040516104979190612490565b60405180910390f35b6104ba60048036038101906104b59190612d17565b61128f565b6040516104c791906123e5565b60405180910390f35b6000634906490660e01b7bffffffffffffffffffffffffffffffffffffffffffffffffffffffff1916827bffffffffffffffffffffffffffffffffffffffffffffffffffffffff1916148061052a575061052982611323565b5b9050919050565b60606000805461054090612d86565b80601f016020809104026020016040519081016040528092919081815260200182805461056c90612d86565b80156105b95780601f1061058e576101008083540402835291602001916105b9565b820191906000526020600020905b81548152906001019060200180831161059c57829003601f168201915b5050505050905090565b60006105ce82611405565b506105d88261148d565b9050919050565b6105f182826105ec6114ca565b6114d2565b5050565b600073ffffffffffffffffffffffffffffffffffffffff168273ffffffffffffffffffffffffffffffffffffffff16036106675760006040517f64a0ae9200000000000000000000000000000000000000000000000000000000815260040161065e9190612556565b60405180910390fd5b600061067b83836106766114ca565b6114e4565b90508373ffffffffffffffffffffffffffffffffffffffff168173ffffffffffffffffffffffffffffffffffffffff16146106f1578382826040517f64283d7b0000000000000000000000000000000000000000000000000000000081526004016106e893929190612db7565b60405180910390fd5b50505050565b600a818051602081018201805184825260208301602085012081835280955050505050506000915054906101000a900460ff1681565b600080826040516020016107419190612e2a565b6040516020818303038152906040528051906020012060001c90506009600082815260200190815260200160002060009054906101000a900460ff16915050919050565b6107a083838360405180602001604052806000815250611131565b505050565b60006009600086815260200190815260200160002060009054906101000a900460ff16610807576040517f08c379a00000000000000000000000000000000000000000000000000000000081526004016107fe90612e8d565b60405180910390fd5b600a846040516108179190612e2a565b908152602001604051809103902060009054906101000a900460ff1615610873576040517f08c379a000000000000000000000000000000000000000000000000000000000815260040161086a90612ef9565b60405180910390fd5b600060086000878152602001908152602001600020604051806080016040529081600082015481526020016001820180546108ad90612d86565b80601f01602080910402602001604051908101604052809291908181526020018280546108d990612d86565b80156109265780601f106108fb57610100808354040283529160200191610926565b820191906000526020600020905b81548152906001019060200180831161090957829003601f168201915b505050505081526020016002820160009054906101000a900473ffffffffffffffffffffffffffffffffffffffff1673ffffffffffffffffffffffffffffffffffffffff1673ffffffffffffffffffffffffffffffffffffffff16815260200160038201548152505090506000856040516020016109a49190612e2a565b6040516020818303038152906040528051906020012090506000610a0e868680806020026020016040519081016040528093929190818152602001838360200280828437600081840152601f19601f820116905080830192505050505050508460000151846116fe565b90506001600a88604051610a229190612e2a565b908152602001604051809103902060006101000a81548160ff02191690831515021790555080610a87576040517f08c379a0000000000000000000000000000000000000000000000000000000008152600401610a7e90612f65565b60405180910390fd5b7ff9aa85e523924e99e2d50641a0c480f1c4f610ec540ae9a474e2be7cdea2651088883342604051610abc9493929190612f85565b60405180910390a160019350505050949350505050565b610adb6122f0565b6009600083815260200190815260200160002060009054906101000a900460ff16610b3b576040517f08c379a0000000000000000000000000000000000000000000000000000000008152600401610b329061301d565b60405180910390fd5b6008600083815260200190815260200160002060405180608001604052908160008201548152602001600182018054610b7390612d86565b80601f0160208091040260200160405190810160405280929190818152602001828054610b9f90612d86565b8015610bec5780601f10610bc157610100808354040283529160200191610bec565b820191906000526020600020905b815481529060010190602001808311610bcf57829003601f168201915b505050505081526020016002820160009054906101000a900473ffffffffffffffffffffffffffffffffffffffff1673ffffffffffffffffffffffffffffffffffffffff1673ffffffffffffffffffffffffffffffffffffffff1681526020016003820154815250509050919050565b6000610c6782611405565b9050919050565b60008073ffffffffffffffffffffffffffffffffffffffff168273ffffffffffffffffffffffffffffffffffffffff1603610ce15760006040517f89c62b64000000000000000000000000000000000000000000000000000000008152600401610cd89190612556565b60405180910390fd5b600360008373ffffffffffffffffffffffffffffffffffffffff1673ffffffffffffffffffffffffffffffffffffffff168152602001908152602001600020549050919050565b60606009600083815260200190815260200160002060009054906101000a900460ff16610d8a576040517f08c379a0000000000000000000000000000000000000000000000000000000008152600401610d819061301d565b60405180910390fd5b610d9382611715565b604051602001610da39190613089565b6040516020818303038152906040529050919050565b60096020528060005260406000206000915054906101000a900460ff1681565b606060018054610de890612d86565b80601f0160208091040260200160405190810160405280929190818152602001828054610e1490612d86565b8015610e615780601f10610e3657610100808354040283529160200191610e61565b820191906000526020600020905b815481529060010190602001808311610e4457829003601f168201915b5050505050905090565b610e7d610e766114ca565b83836117e3565b5050565b60008084604051602001610e959190612e2a565b6040516020818303038152906040528051906020012060001c90506009600082815260200190815260200160002060009054906101000a900460ff1615610f11576040517f08c379a0000000000000000000000000000000000000000000000000000000008152600401610f08906130f7565b60405180910390fd5b610f1b3382611952565b610f258184611970565b60405180608001604052808581526020018481526020013373ffffffffffffffffffffffffffffffffffffffff1681526020014281525060086000838152602001908152602001600020600082015181600001556020820151816001019081610f8e91906132b9565b5060408201518160020160006101000a81548173ffffffffffffffffffffffffffffffffffffffff021916908373ffffffffffffffffffffffffffffffffffffffff1602179055506060820151816003015590505060016009600083815260200190815260200160002060006101000a81548160ff0219169083151502179055507f6e2392af41f0345f7a77bff6c624cc3b5cbc1f0773ff08fb3c68c2c2def1dded818686863360405161104695949392919061338b565b60405180910390a1809150509392505050565b600860205280600052604060002060009150905080600001549080600101805461108290612d86565b80601f01602080910402602001604051908101604052809291908181526020018280546110ae90612d86565b80156110fb5780601f106110d0576101008083540402835291602001916110fb565b820191906000526020600020905b8154815290600101906020018083116110de57829003601f168201915b5050505050908060020160009054906101000a900473ffffffffffffffffffffffffffffffffffffffff16908060030154905084565b61113c8484846105f5565b6111506111476114ca565b858585856119cc565b50505050565b600760009054906101000a900473ffffffffffffffffffffffffffffffffffffffff1681565b606061118782611405565b5060006006600084815260200190815260200160002080546111a890612d86565b80601f01602080910402602001604051908101604052809291908181526020018280546111d490612d86565b80156112215780601f106111f657610100808354040283529160200191611221565b820191906000526020600020905b81548152906001019060200180831161120457829003601f168201915b505050505090506000611232611b7d565b9050600081510361124757819250505061128a565b60008251111561127c5780826040516020016112649291906133ec565b6040516020818303038152906040529250505061128a565b61128584611b94565b925050505b919050565b6000600560008473ffffffffffffffffffffffffffffffffffffffff1673ffffffffffffffffffffffffffffffffffffffff16815260200190815260200160002060008373ffffffffffffffffffffffffffffffffffffffff1673ffffffffffffffffffffffffffffffffffffffff16815260200190815260200160002060009054906101000a900460ff16905092915050565b60007f80ac58cd000000000000000000000000000000000000000000000000000000007bffffffffffffffffffffffffffffffffffffffffffffffffffffffff1916827bffffffffffffffffffffffffffffffffffffffffffffffffffffffff191614806113ee57507f5b5e139f000000000000000000000000000000000000000000000000000000007bffffffffffffffffffffffffffffffffffffffffffffffffffffffff1916827bffffffffffffffffffffffffffffffffffffffffffffffffffffffff1916145b806113fe57506113fd82611bfd565b5b9050919050565b60008061141183611c67565b9050600073ffffffffffffffffffffffffffffffffffffffff168173ffffffffffffffffffffffffffffffffffffffff160361148457826040517f7e27328900000000000000000000000000000000000000000000000000000000815260040161147b91906129e0565b60405180910390fd5b80915050919050565b60006004600083815260200190815260200160002060009054906101000a900473ffffffffffffffffffffffffffffffffffffffff169050919050565b600033905090565b6114df8383836001611ca4565b505050565b6000806114f084611c67565b9050600073ffffffffffffffffffffffffffffffffffffffff168373ffffffffffffffffffffffffffffffffffffffff161461153257611531818486611e69565b5b600073ffffffffffffffffffffffffffffffffffffffff168173ffffffffffffffffffffffffffffffffffffffff16146115c357611574600085600080611ca4565b6001600360008373ffffffffffffffffffffffffffffffffffffffff1673ffffffffffffffffffffffffffffffffffffffff168152602001908152602001600020600082825403925050819055505b600073ffffffffffffffffffffffffffffffffffffffff168573ffffffffffffffffffffffffffffffffffffffff1614611646576001600360008773ffffffffffffffffffffffffffffffffffffffff1673ffffffffffffffffffffffffffffffffffffffff168152602001908152602001600020600082825401925050819055505b846002600086815260200190815260200160002060006101000a81548173ffffffffffffffffffffffffffffffffffffffff021916908373ffffffffffffffffffffffffffffffffffffffff160217905550838573ffffffffffffffffffffffffffffffffffffffff168273ffffffffffffffffffffffffffffffffffffffff167fddf252ad1be2c89b69c2b068fc378daa952ba7f163c4a11628f55a4df523b3ef60405160405180910390a4809150509392505050565b60008261170b8584611f2d565b1490509392505050565b60606000600161172484611f7d565b01905060008167ffffffffffffffff8111156117435761174261263a565b5b6040519080825280601f01601f1916602001820160405280156117755781602001600182028036833780820191505090505b509050600082602001820190505b6001156117d8578080600190039150507f3031323334353637383961626364656600000000000000000000000000000000600a86061a8153600a85816117cc576117cb613410565b5b04945060008503611783575b819350505050919050565b600073ffffffffffffffffffffffffffffffffffffffff168273ffffffffffffffffffffffffffffffffffffffff160361185457816040517f5b08ba1800000000000000000000000000000000000000000000000000000000815260040161184b9190612556565b60405180910390fd5b80600560008573ffffffffffffffffffffffffffffffffffffffff1673ffffffffffffffffffffffffffffffffffffffff16815260200190815260200160002060008473ffffffffffffffffffffffffffffffffffffffff1673ffffffffffffffffffffffffffffffffffffffff16815260200190815260200160002060006101000a81548160ff0219169083151502179055508173ffffffffffffffffffffffffffffffffffffffff168373ffffffffffffffffffffffffffffffffffffffff167f17307eab39ab6107e8899845ad3d59bd9653f200f220920489ca2b5937696c318360405161194591906123e5565b60405180910390a3505050565b61196c8282604051806020016040528060008152506120d0565b5050565b8060066000848152602001908152602001600020908161199091906132b9565b507ff8e1a15aba9398e019f0b49df1a4fde98ee17ae345cb5f6b5e2c27f5033e8ce7826040516119c091906129e0565b60405180910390a15050565b60008373ffffffffffffffffffffffffffffffffffffffff163b1115611b76578273ffffffffffffffffffffffffffffffffffffffff1663150b7a02868685856040518563ffffffff1660e01b8152600401611a2b9493929190613494565b6020604051808303816000875af1925050508015611a6757506040513d601f19601f82011682018060405250810190611a6491906134f5565b60015b611aeb573d8060008114611a97576040519150601f19603f3d011682016040523d82523d6000602084013e611a9c565b606091505b506000815103611ae357836040517f64a0ae92000000000000000000000000000000000000000000000000000000008152600401611ada9190612556565b60405180910390fd5b805181602001fd5b63150b7a0260e01b7bffffffffffffffffffffffffffffffffffffffffffffffffffffffff1916817bffffffffffffffffffffffffffffffffffffffffffffffffffffffff191614611b7457836040517f64a0ae92000000000000000000000000000000000000000000000000000000008152600401611b6b9190612556565b60405180910390fd5b505b5050505050565b606060405180602001604052806000815250905090565b6060611b9f82611405565b506000611baa611b7d565b90506000815111611bca5760405180602001604052806000815250611bf5565b80611bd484611715565b604051602001611be59291906133ec565b6040516020818303038152906040525b915050919050565b60007f01ffc9a7000000000000000000000000000000000000000000000000000000007bffffffffffffffffffffffffffffffffffffffffffffffffffffffff1916827bffffffffffffffffffffffffffffffffffffffffffffffffffffffff1916149050919050565b60006002600083815260200190815260200160002060009054906101000a900473ffffffffffffffffffffffffffffffffffffffff169050919050565b8080611cdd5750600073ffffffffffffffffffffffffffffffffffffffff168273ffffffffffffffffffffffffffffffffffffffff1614155b15611e11576000611ced84611405565b9050600073ffffffffffffffffffffffffffffffffffffffff168373ffffffffffffffffffffffffffffffffffffffff1614158015611d5857508273ffffffffffffffffffffffffffffffffffffffff168173ffffffffffffffffffffffffffffffffffffffff1614155b8015611d6b5750611d69818461128f565b155b15611dad57826040517fa9fbf51f000000000000000000000000000000000000000000000000000000008152600401611da49190612556565b60405180910390fd5b8115611e0f57838573ffffffffffffffffffffffffffffffffffffffff168273ffffffffffffffffffffffffffffffffffffffff167f8c5be1e5ebec7d5bd14f71427d1e84f3dd0314c0f7b2291e5b200ac8c7c3b92560405160405180910390a45b505b836004600085815260200190815260200160002060006101000a81548173ffffffffffffffffffffffffffffffffffffffff021916908373ffffffffffffffffffffffffffffffffffffffff16021790555050505050565b611e748383836120f4565b611f2857600073ffffffffffffffffffffffffffffffffffffffff168373ffffffffffffffffffffffffffffffffffffffff1603611ee957806040517f7e273289000000000000000000000000000000000000000000000000000000008152600401611ee091906129e0565b60405180910390fd5b81816040517f177e802f000000000000000000000000000000000000000000000000000000008152600401611f1f929190613522565b60405180910390fd5b505050565b60008082905060005b8451811015611f7257611f6382868381518110611f5657611f5561354b565b5b60200260200101516121b5565b91508080600101915050611f36565b508091505092915050565b600080600090507a184f03e93ff9f4daa797ed6e38ed64bf6a1f0100000000000000008310611fdb577a184f03e93ff9f4daa797ed6e38ed64bf6a1f0100000000000000008381611fd157611fd0613410565b5b0492506040810190505b6d04ee2d6d415b85acef81000000008310612018576d04ee2d6d415b85acef8100000000838161200e5761200d613410565b5b0492506020810190505b662386f26fc10000831061204757662386f26fc10000838161203d5761203c613410565b5b0492506010810190505b6305f5e1008310612070576305f5e100838161206657612065613410565b5b0492506008810190505b612710831061209557612710838161208b5761208a613410565b5b0492506004810190505b606483106120b857606483816120ae576120ad613410565b5b0492506002810190505b600a83106120c7576001810190505b80915050919050565b6120da83836121e0565b6120ef6120e56114ca565b60008585856119cc565b505050565b60008073ffffffffffffffffffffffffffffffffffffffff168373ffffffffffffffffffffffffffffffffffffffff16141580156121ac57508273ffffffffffffffffffffffffffffffffffffffff168473ffffffffffffffffffffffffffffffffffffffff16148061216d575061216c848461128f565b5b806121ab57508273ffffffffffffffffffffffffffffffffffffffff166121938361148d565b73ffffffffffffffffffffffffffffffffffffffff16145b5b90509392505050565b60008183106121cd576121c882846122d9565b6121d8565b6121d783836122d9565b5b905092915050565b600073ffffffffffffffffffffffffffffffffffffffff168273ffffffffffffffffffffffffffffffffffffffff16036122525760006040517f64a0ae920000000000000000000000000000000000000000000000000000000081526004016122499190612556565b60405180910390fd5b6000612260838360006114e4565b9050600073ffffffffffffffffffffffffffffffffffffffff168173ffffffffffffffffffffffffffffffffffffffff16146122d45760006040517f73c6ac6e0000000000000000000000000000000000000000000000000000000081526004016122cb9190612556565b60405180910390fd5b505050565b600082600052816020526040600020905092915050565b60405180608001604052806000801916815260200160608152602001600073ffffffffffffffffffffffffffffffffffffffff168152602001600081525090565b6000604051905090565b600080fd5b600080fd5b60007fffffffff0000000000000000000000000000000000000000000000000000000082169050919050565b61237a81612345565b811461238557600080fd5b50565b60008135905061239781612371565b92915050565b6000602082840312156123b3576123b261233b565b5b60006123c184828501612388565b91505092915050565b60008115159050919050565b6123df816123ca565b82525050565b60006020820190506123fa60008301846123d6565b92915050565b600081519050919050565b600082825260208201905092915050565b60005b8381101561243a57808201518184015260208101905061241f565b60008484015250505050565b6000601f19601f8301169050919050565b600061246282612400565b61246c818561240b565b935061247c81856020860161241c565b61248581612446565b840191505092915050565b600060208201905081810360008301526124aa8184612457565b905092915050565b6000819050919050565b6124c5816124b2565b81146124d057600080fd5b50565b6000813590506124e2816124bc565b92915050565b6000602082840312156124fe576124fd61233b565b5b600061250c848285016124d3565b91505092915050565b600073ffffffffffffffffffffffffffffffffffffffff82169050919050565b600061254082612515565b9050919050565b61255081612535565b82525050565b600060208201905061256b6000830184612547565b92915050565b61257a81612535565b811461258557600080fd5b50565b60008135905061259781612571565b92915050565b600080604083850312156125b4576125b361233b565b5b60006125c285828601612588565b92505060206125d3858286016124d3565b9150509250929050565b6000806000606084860312156125f6576125f561233b565b5b600061260486828701612588565b935050602061261586828701612588565b9250506040612626868287016124d3565b9150509250925092565b600080fd5b600080fd5b7f4e487b7100000000000000000000000000000000000000000000000000000000600052604160045260246000fd5b61267282612446565b810181811067ffffffffffffffff821117156126915761269061263a565b5b80604052505050565b60006126a4612331565b90506126b08282612669565b919050565b600067ffffffffffffffff8211156126d0576126cf61263a565b5b6126d982612446565b9050602081019050919050565b82818337600083830152505050565b6000612708612703846126b5565b61269a565b90508281526020810184848401111561272457612723612635565b5b61272f8482856126e6565b509392505050565b600082601f83011261274c5761274b612630565b5b813561275c8482602086016126f5565b91505092915050565b60006020828403121561277b5761277a61233b565b5b600082013567ffffffffffffffff81111561279957612798612340565b5b6127a584828501612737565b91505092915050565b600080fd5b600080fd5b60008083601f8401126127ce576127cd612630565b5b8235905067ffffffffffffffff8111156127eb576127ea6127ae565b5b602083019150836020820283011115612807576128066127b3565b5b9250929050565b600080600080606085870312156128285761282761233b565b5b6000612836878288016124d3565b945050602085013567ffffffffffffffff81111561285757612856612340565b5b61286387828801612737565b935050604085013567ffffffffffffffff81111561288457612883612340565b5b612890878288016127b8565b925092505092959194509250565b6000819050919050565b6128b18161289e565b82525050565b600082825260208201905092915050565b60006128d382612400565b6128dd81856128b7565b93506128ed81856020860161241c565b6128f681612446565b840191505092915050565b61290a81612535565b82525050565b612919816124b2565b82525050565b600060808301600083015161293760008601826128a8565b506020830151848203602086015261294f82826128c8565b91505060408301516129646040860182612901565b5060608301516129776060860182612910565b508091505092915050565b6000602082019050818103600083015261299c818461291f565b905092915050565b6000602082840312156129ba576129b961233b565b5b60006129c884828501612588565b91505092915050565b6129da816124b2565b82525050565b60006020820190506129f560008301846129d1565b92915050565b612a04816123ca565b8114612a0f57600080fd5b50565b600081359050612a21816129fb565b92915050565b60008060408385031215612a3e57612a3d61233b565b5b6000612a4c85828601612588565b9250506020612a5d85828601612a12565b9150509250929050565b612a708161289e565b8114612a7b57600080fd5b50565b600081359050612a8d81612a67565b92915050565b600080600060608486031215612aac57612aab61233b565b5b600084013567ffffffffffffffff811115612aca57612ac9612340565b5b612ad686828701612737565b9350506020612ae786828701612a7e565b925050604084013567ffffffffffffffff811115612b0857612b07612340565b5b612b1486828701612737565b9150509250925092565b612b278161289e565b82525050565b6000608082019050612b426000830187612b1e565b8181036020830152612b548186612457565b9050612b636040830185612547565b612b7060608301846129d1565b95945050505050565b600067ffffffffffffffff821115612b9457612b9361263a565b5b612b9d82612446565b9050602081019050919050565b6000612bbd612bb884612b79565b61269a565b905082815260208101848484011115612bd957612bd8612635565b5b612be48482856126e6565b509392505050565b600082601f830112612c0157612c00612630565b5b8135612c11848260208601612baa565b91505092915050565b60008060008060808587031215612c3457612c3361233b565b5b6000612c4287828801612588565b9450506020612c5387828801612588565b9350506040612c64878288016124d3565b925050606085013567ffffffffffffffff811115612c8557612c84612340565b5b612c9187828801612bec565b91505092959194509250565b6000819050919050565b6000612cc2612cbd612cb884612515565b612c9d565b612515565b9050919050565b6000612cd482612ca7565b9050919050565b6000612ce682612cc9565b9050919050565b612cf681612cdb565b82525050565b6000602082019050612d116000830184612ced565b92915050565b60008060408385031215612d2e57612d2d61233b565b5b6000612d3c85828601612588565b9250506020612d4d85828601612588565b9150509250929050565b7f4e487b7100000000000000000000000000000000000000000000000000000000600052602260045260246000fd5b60006002820490506001821680612d9e57607f821691505b602082108103612db157612db0612d57565b5b50919050565b6000606082019050612dcc6000830186612547565b612dd960208301856129d1565b612de66040830184612547565b949350505050565b600081905092915050565b6000612e0482612400565b612e0e8185612dee565b9350612e1e81856020860161241c565b80840191505092915050565b6000612e368284612df9565b915081905092915050565b7f4261746368206e6f7420666f756e640000000000000000000000000000000000600082015250565b6000612e77600f8361240b565b9150612e8282612e41565b602082019050919050565b60006020820190508181036000830152612ea681612e6a565b9050919050565b7f537472697020616c726561647920766572696669656400000000000000000000600082015250565b6000612ee360168361240b565b9150612eee82612ead565b602082019050919050565b60006020820190508181036000830152612f1281612ed6565b9050919050565b7f496e76616c6964204d65726b6c652050726f6f66000000000000000000000000600082015250565b6000612f4f60148361240b565b9150612f5a82612f19565b602082019050919050565b60006020820190508181036000830152612f7e81612f42565b9050919050565b6000608082019050612f9a60008301876129d1565b8181036020830152612fac8186612457565b9050612fbb6040830185612547565b612fc860608301846129d1565b95945050505050565b7f426174636820646f6573206e6f74206578697374000000000000000000000000600082015250565b600061300760148361240b565b915061301282612fd1565b602082019050919050565b6000602082019050818103600083015261303681612ffa565b9050919050565b7f42617463682049443a2000000000000000000000000000000000000000000000600082015250565b6000613073600a83612dee565b915061307e8261303d565b600a82019050919050565b600061309482613066565b91506130a08284612df9565b915081905092915050565b7f426174636820616c726561647920657869737473000000000000000000000000600082015250565b60006130e160148361240b565b91506130ec826130ab565b602082019050919050565b60006020820190508181036000830152613110816130d4565b9050919050565b60008190508160005260206000209050919050565b60006020601f8301049050919050565b600082821b905092915050565b6000600883026131797fffffffffffffffffffffffffffffffffffffffffffffffffffffffffffffffff8261313c565b613183868361313c565b95508019841693508086168417925050509392505050565b60006131b66131b16131ac846124b2565b612c9d565b6124b2565b9050919050565b6000819050919050565b6131d08361319b565b6131e46131dc826131bd565b848454613149565b825550505050565b600090565b6131f96131ec565b6132048184846131c7565b505050565b5b818110156132285761321d6000826131f1565b60018101905061320a565b5050565b601f82111561326d5761323e81613117565b6132478461312c565b81016020851015613256578190505b61326a6132628561312c565b830182613209565b50505b505050565b600082821c905092915050565b600061329060001984600802613272565b1980831691505092915050565b60006132a9838361327f565b9150826002028217905092915050565b6132c282612400565b67ffffffffffffffff8111156132db576132da61263a565b5b6132e58254612d86565b6132f082828561322c565b600060209050601f8311600181146133235760008415613311578287015190505b61331b858261329d565b865550613383565b601f19841661333186613117565b60005b8281101561335957848901518255600182019150602085019450602081019050613334565b868310156133765784890151613372601f89168261327f565b8355505b6001600288020188555050505b505050505050565b600060a0820190506133a060008301886129d1565b81810360208301526133b28187612457565b90506133c16040830186612b1e565b81810360608301526133d38185612457565b90506133e26080830184612547565b9695505050505050565b60006133f88285612df9565b91506134048284612df9565b91508190509392505050565b7f4e487b7100000000000000000000000000000000000000000000000000000000600052601260045260246000fd5b600081519050919050565b600082825260208201905092915050565b60006134668261343f565b613470818561344a565b935061348081856020860161241c565b61348981612446565b840191505092915050565b60006080820190506134a96000830187612547565b6134b66020830186612547565b6134c360408301856129d1565b81810360608301526134d5818461345b565b905095945050505050565b6000815190506134ef81612371565b92915050565b60006020828403121561350b5761350a61233b565b5b6000613519848285016134e0565b91505092915050565b60006040820190506135376000830185612547565b61354460208301846129d1565b9392505050565b7f4e487b7100000000000000000000000000000000000000000000000000000000600052603260045260246000fdfea26469706673582212207af76c08db0295c59579e5b66da63aa91bdd3038cc60595ce163a8a53fb131f664736f6c634300081c0033",
  "linkReferences": {},
  "deployedLinkReferences": {}
}