{
  "_format": "hh-sol-artifact-1",
  "contractName": "MedicalRecords",
  "sourceName": "contracts/MedicalRecords.sol",
  "abi": [
    {
      "inputs": [
        {
          "internalType": "address",
          "name": "_userRegistry",
          "type": "address"
        }
      ],
      "stateMutability": "nonpayable",
      "type": "constructor"
    },
    {
      "anonymous": false,
      "inputs": [
        {
          "indexed": true,
          "internalType": "address",
          "name": "patient",
          "type": "address"
        },
        {
          "indexed": true,
          "internalType": "address",
          "name": "doctor",
          "type": "address"
        }
      ],
      "name": "AccessGranted",
      "type": "event"
    },
    {
      "anonymous": false,
      "inputs": [
        {
          "indexed": true,
          "internalType": "address",
          "name": "patient",
          "type": "address"
        },
        {
          "indexed": true,
          "internalType": "address",
          "name": "doctor",
          "type": "address"
        }
      ],
      "name": "AccessRevoked",
      "type": "event"
    },
    {
      "anonymous": false,
      "inputs": [
        {
          "indexed": true,
          "internalType": "address",
          "name": "patient",
          "type": "address"
        },
        {
          "indexed": false,
          "internalType": "string",
          "name": "fileName",
          "type": "string"
        },
        {
          "indexed": false,
          "internalType": "string",
          "name": "fileType",
          "type": "string"
        },
        {
          "indexed": false,
          "internalType": "string",
          "name": "ipfsHash",
          "type": "string"
        },
        {
          "indexed": false,
          "internalType": "bytes32",
          "name": "sha256Hash",
          "type": "bytes32"
        }
      ],
      "name": "RecordUploaded",
      "type": "event"
    },
    {
      "inputs": [
        {
          "internalType": "address",
          "name": "",
          "type": "address"
        },
        {
          "internalType": "address",
          "name": "",
          "type": "address"
        }
      ],
      "name": "accessPermissions",
      "outputs": [
        {
          "internalType": "bool",
          "name": "",
          "type": "bool"
        }
      ],
      "stateMutability": "view",
      "type": "function"
    },
    {
      "inputs": [
        {
          "internalType": "address",
          "name": "_patient",
          "type": "address"
        }
      ],
      "name": "getAccessList",
      "outputs": [
        {
          "internalType": "address[]",
          "name": "",
          "type": "address[]"
        }
      ],
      "stateMutability": "view",
      "type": "function"
    },
    {
      "inputs": [
        {
          "internalType": "address",
          "name": "_patient",
          "type": "address"
        }
      ],
      "name": "getRecords",
      "outputs": [
        {
          "components": [
            {
              "internalType": "string",
              "name": "fileName",
              "type": "string"
            },
            {
              "internalType": "string",
              "name": "fileType",
              "type": "string"
            },
            {
              "internalType": "string",
              "name": "ipfsHash",
              "type": "string"
            },
            {
              "internalType": "bytes32",
              "name": "sha256Hash",
              "type": "bytes32"
            },
            {
              "internalType": "address",
              "name": "uploadedBy",
              "type": "address"
            },
            {
              "internalType": "bool",
              "name": "isShared",
              "type": "bool"
            }
          ],
          "internalType": "struct MedicalRecords.Record[]",
          "name": "",
          "type": "tuple[]"
        }
      ],
      "stateMutability": "view",
      "type": "function"
    },
    {
      "inputs": [
        {
          "internalType": "address",
          "name": "_doctor",
          "type": "address"
        }
      ],
      "name": "grantAccess",
      "outputs": [],
      "stateMutability": "nonpayable",
      "type": "function"
    },
    {
      "inputs": [
        {
          "internalType": "address",
          "name": "",
          "type": "address"
        },
        {
          "internalType": "uint256",
          "name": "",
          "type": "uint256"
        }
      ],
      "name": "patientRecords",
      "outputs": [
        {
          "internalType": "string",
          "name": "fileName",
          "type": "string"
        },
        {
          "internalType": "string",
          "name": "fileType",
          "type": "string"
        },
        {
          "internalType": "string",
          "name": "ipfsHash",
          "type": "string"
        },
        {
          "internalType": "bytes32",
          "name": "sha256Hash",
          "type": "bytes32"
        },
        {
          "internalType": "address",
          "name": "uploadedBy",
          "type": "address"
        },
        {
          "internalType": "bool",
          "name": "isShared",
          "type": "bool"
        }
      ],
      "stateMutability": "view",
      "type": "function"
    },
    {
      "inputs": [
        {
          "internalType": "address",
          "name": "_doctor",
          "type": "address"
        }
      ],
      "name": "revokeAccess",
      "outputs": [],
      "stateMutability": "nonpayable",
      "type": "function"
    },
    {
      "inputs": [
        {
          "internalType": "string",
          "name": "_fileName",
          "type": "string"
        },
        {
          "internalType": "string",
          "name": "_fileType",
          "type": "string"
        },
        {
          "internalType": "string",
          "name": "_ipfsHash",
          "type": "string"
        },
        {
          "internalType": "bytes32",
          "name": "_sha256Hash",
          "type": "bytes32"
        },
        {
          "internalType": "address",
          "name": "_patient",
          "type": "address"
        }
      ],
      "name": "uploadPrescription",
      "outputs": [],
      "stateMutability": "nonpayable",
      "type": "function"
    },
    {
      "inputs": [
        {
          "internalType": "string",
          "name": "_fileName",
          "type": "string"
        },
        {
          "internalType": "string",
          "name": "_fileType",
          "type": "string"
        },
        {
          "internalType": "string",
          "name": "_ipfsHash",
          "type": "string"
        },
        {
          "internalType": "bytes32",
          "name": "_sha256Hash",
          "type": "bytes32"
        }
      ],
      "name": "uploadRecord",
      "outputs": [],
      "stateMutability": "nonpayable",
      "type": "function"
    }
  ],
  "bytecode": "0x608060405234801561001057600080fd5b50604051612bfe380380612bfe833981810160405281019061003291906100db565b806000806101000a81548173ffffffffffffffffffffffffffffffffffffffff021916908373ffffffffffffffffffffffffffffffffffffffff16021790555050610108565b600080fd5b600073ffffffffffffffffffffffffffffffffffffffff82169050919050565b60006100a88261007d565b9050919050565b6100b88161009d565b81146100c357600080fd5b50565b6000815190506100d5816100af565b92915050565b6000602082840312156100f1576100f0610078565b5b60006100ff848285016100c6565b91505092915050565b612ae7806101176000396000f3fe608060405234801561001057600080fd5b50600436106100885760003560e01c806385e685311161005b57806385e685311461012557806394f0df6114610141578063a0076e8414610176578063a6f30dc6146101a657610088565b8063058d85a41461008d5780630ae5e739146100a957806364b3b525146100c557806380efcb3c146100f5575b600080fd5b6100a760048036038101906100a29190611ace565b6101c2565b005b6100c360048036038101906100be9190611be7565b61057e565b005b6100df60048036038101906100da9190611c14565b610948565b6040516100ec9190611c6f565b60405180910390f35b61010f600480360381019061010a9190611be7565b610977565b60405161011c9190611d48565b60405180910390f35b61013f600480360381019061013a9190611be7565b610d4e565b005b61015b60048036038101906101569190611da0565b610fe2565b60405161016d96959493929190611e7d565b60405180910390f35b610190600480360381019061018b9190611be7565b611200565b60405161019d91906120b4565b60405180910390f35b6101c060048036038101906101bb91906120d6565b6116a7565b005b60008054906101000a900473ffffffffffffffffffffffffffffffffffffffff1673ffffffffffffffffffffffffffffffffffffffff1663c3c5a547336040518263ffffffff1660e01b815260040161021b91906121a5565b602060405180830381865afa158015610238573d6000803e3d6000fd5b505050506040513d601f19601f8201168201806040525081019061025c91906121ec565b61029b576040517f08c379a000000000000000000000000000000000000000000000000000000000815260040161029290612265565b60405180910390fd5b7fdc3b9d7fd28cfc7a70a999f2eb4b60672e6b88c8ed3280f4fb467b501b62b92e60008054906101000a900473ffffffffffffffffffffffffffffffffffffffff1673ffffffffffffffffffffffffffffffffffffffff16638b3f863f336040518263ffffffff1660e01b815260040161031591906121a5565b600060405180830381865afa158015610332573d6000803e3d6000fd5b505050506040513d6000823e3d601f19601f8201168201806040525081019061035b91906122f5565b60405160200161036b919061237a565b60405160208183030381529060405280519060200120146103c1576040517f08c379a00000000000000000000000000000000000000000000000000000000081526004016103b8906123dd565b60405180910390fd5b600160003373ffffffffffffffffffffffffffffffffffffffff1673ffffffffffffffffffffffffffffffffffffffff1681526020019081526020016000206040518060c001604052808681526020018581526020018481526020018381526020013373ffffffffffffffffffffffffffffffffffffffff16815260200160001515815250908060018154018082558091505060019003906000526020600020906005020160009091909190915060008201518160000190816104849190612609565b50602082015181600101908161049a9190612609565b5060408201518160020190816104b09190612609565b506060820151816003015560808201518160040160006101000a81548173ffffffffffffffffffffffffffffffffffffffff021916908373ffffffffffffffffffffffffffffffffffffffff16021790555060a08201518160040160146101000a81548160ff02191690831515021790555050503373ffffffffffffffffffffffffffffffffffffffff167f5fabd358cac1d713f5587eb9d13ac05655c14c8e6e4068a828207de7049158448585858560405161057094939291906126db565b60405180910390a250505050565b60008054906101000a900473ffffffffffffffffffffffffffffffffffffffff1673ffffffffffffffffffffffffffffffffffffffff1663c3c5a547336040518263ffffffff1660e01b81526004016105d791906121a5565b602060405180830381865afa1580156105f4573d6000803e3d6000fd5b505050506040513d601f19601f8201168201806040525081019061061891906121ec565b610657576040517f08c379a000000000000000000000000000000000000000000000000000000000815260040161064e90612265565b60405180910390fd5b7fdc3b9d7fd28cfc7a70a999f2eb4b60672e6b88c8ed3280f4fb467b501b62b92e60008054906101000a900473ffffffffffffffffffffffffffffffffffffffff1673ffffffffffffffffffffffffffffffffffffffff16638b3f863f336040518263ffffffff1660e01b81526004016106d191906121a5565b600060405180830381865afa1580156106ee573d6000803e3d6000fd5b505050506040513d6000823e3d601f19601f8201168201806040525081019061071791906122f5565b604051602001610727919061237a565b604051602081830303815290604052805190602001201461077d576040517f08c379a000000000000000000000000000000000000000000000000000000000815260040161077490612781565b60405180910390fd5b60008054906101000a900473ffffffffffffffffffffffffffffffffffffffff1673ffffffffffffffffffffffffffffffffffffffff1663996440c6826040518263ffffffff1660e01b81526004016107d691906121a5565b602060405180830381865afa1580156107f3573d6000803e3d6000fd5b505050506040513d601f19601f8201168201806040525081019061081791906121ec565b610856576040517f08c379a000000000000000000000000000000000000000000000000000000000815260040161084d906127ed565b60405180910390fd5b6001600260003373ffffffffffffffffffffffffffffffffffffffff1673ffffffffffffffffffffffffffffffffffffffff16815260200190815260200160002060008373ffffffffffffffffffffffffffffffffffffffff1673ffffffffffffffffffffffffffffffffffffffff16815260200190815260200160002060006101000a81548160ff0219169083151502179055508073ffffffffffffffffffffffffffffffffffffffff163373ffffffffffffffffffffffffffffffffffffffff167f9f520b3bfc56d06f7065d10b4683b3f57ac8895d5026cd176dee95ce1454cb8d60405160405180910390a350565b60026020528160005260406000206020528060005260406000206000915091509054906101000a900460ff1681565b606060008054906101000a900473ffffffffffffffffffffffffffffffffffffffff1673ffffffffffffffffffffffffffffffffffffffff1663c3c5a547336040518263ffffffff1660e01b81526004016109d291906121a5565b602060405180830381865afa1580156109ef573d6000803e3d6000fd5b505050506040513d601f19601f82011682018060405250810190610a1391906121ec565b610a52576040517f08c379a0000000000000000000000000000000000000000000000000000000008152600401610a4990612265565b60405180910390fd5b60008060009054906101000a900473ffffffffffffffffffffffffffffffffffffffff1673ffffffffffffffffffffffffffffffffffffffff1663b13d5d946040518163ffffffff1660e01b8152600401600060405180830381865afa158015610ac0573d6000803e3d6000fd5b505050506040513d6000823e3d601f19601f82011682018060405250810190610ae991906128ea565b9050600080825167ffffffffffffffff811115610b0957610b0861196d565b5b604051908082528060200260200182016040528015610b375781602001602082028036833780820191505090505b50905060005b8351811015610c7357600260008773ffffffffffffffffffffffffffffffffffffffff1673ffffffffffffffffffffffffffffffffffffffff1681526020019081526020016000206000858381518110610b9a57610b99612933565b5b602002602001015173ffffffffffffffffffffffffffffffffffffffff1673ffffffffffffffffffffffffffffffffffffffff16815260200190815260200160002060009054906101000a900460ff1615610c6657838181518110610c0257610c01612933565b5b6020026020010151828481518110610c1d57610c1c612933565b5b602002602001019073ffffffffffffffffffffffffffffffffffffffff16908173ffffffffffffffffffffffffffffffffffffffff16815250508280610c6290612991565b9350505b8080600101915050610b3d565b5060008267ffffffffffffffff811115610c9057610c8f61196d565b5b604051908082528060200260200182016040528015610cbe5781602001602082028036833780820191505090505b50905060005b83811015610d4157828181518110610cdf57610cde612933565b5b6020026020010151828281518110610cfa57610cf9612933565b5b602002602001019073ffffffffffffffffffffffffffffffffffffffff16908173ffffffffffffffffffffffffffffffffffffffff16815250508080600101915050610cc4565b5080945050505050919050565b60008054906101000a900473ffffffffffffffffffffffffffffffffffffffff1673ffffffffffffffffffffffffffffffffffffffff1663c3c5a547336040518263ffffffff1660e01b8152600401610da791906121a5565b602060405180830381865afa158015610dc4573d6000803e3d6000fd5b505050506040513d601f19601f82011682018060405250810190610de891906121ec565b610e27576040517f08c379a0000000000000000000000000000000000000000000000000000000008152600401610e1e90612265565b60405180910390fd5b600260003373ffffffffffffffffffffffffffffffffffffffff1673ffffffffffffffffffffffffffffffffffffffff16815260200190815260200160002060008273ffffffffffffffffffffffffffffffffffffffff1673ffffffffffffffffffffffffffffffffffffffff16815260200190815260200160002060009054906101000a900460ff16610ef0576040517f08c379a0000000000000000000000000000000000000000000000000000000008152600401610ee790612a25565b60405180910390fd5b6000600260003373ffffffffffffffffffffffffffffffffffffffff1673ffffffffffffffffffffffffffffffffffffffff16815260200190815260200160002060008373ffffffffffffffffffffffffffffffffffffffff1673ffffffffffffffffffffffffffffffffffffffff16815260200190815260200160002060006101000a81548160ff0219169083151502179055508073ffffffffffffffffffffffffffffffffffffffff163373ffffffffffffffffffffffffffffffffffffffff167f825c8be24eb0df19500f63e86c29e7d0d951e73056b889b891d85e40938d9b6e60405160405180910390a350565b60016020528160005260406000208181548110610ffe57600080fd5b9060005260206000209060050201600091509150508060000180546110229061242c565b80601f016020809104026020016040519081016040528092919081815260200182805461104e9061242c565b801561109b5780601f106110705761010080835404028352916020019161109b565b820191906000526020600020905b81548152906001019060200180831161107e57829003601f168201915b5050505050908060010180546110b09061242c565b80601f01602080910402602001604051908101604052809291908181526020018280546110dc9061242c565b80156111295780601f106110fe57610100808354040283529160200191611129565b820191906000526020600020905b81548152906001019060200180831161110c57829003601f168201915b50505050509080600201805461113e9061242c565b80601f016020809104026020016040519081016040528092919081815260200182805461116a9061242c565b80156111b75780601f1061118c576101008083540402835291602001916111b7565b820191906000526020600020905b81548152906001019060200180831161119a57829003601f168201915b5050505050908060030154908060040160009054906101000a900473ffffffffffffffffffffffffffffffffffffffff16908060040160149054906101000a900460ff16905086565b606060008054906101000a900473ffffffffffffffffffffffffffffffffffffffff1673ffffffffffffffffffffffffffffffffffffffff1663c3c5a547336040518263ffffffff1660e01b815260040161125b91906121a5565b602060405180830381865afa158015611278573d6000803e3d6000fd5b505050506040513d601f19601f8201168201806040525081019061129c91906121ec565b6112db576040517f08c379a00000000000000000000000000000000000000000000000000000000081526004016112d290612265565b60405180910390fd5b8173ffffffffffffffffffffffffffffffffffffffff163373ffffffffffffffffffffffffffffffffffffffff16148061139b5750600260008373ffffffffffffffffffffffffffffffffffffffff1673ffffffffffffffffffffffffffffffffffffffff16815260200190815260200160002060003373ffffffffffffffffffffffffffffffffffffffff1673ffffffffffffffffffffffffffffffffffffffff16815260200190815260200160002060009054906101000a900460ff165b6113da576040517f08c379a00000000000000000000000000000000000000000000000000000000081526004016113d190612a91565b60405180910390fd5b600160008373ffffffffffffffffffffffffffffffffffffffff1673ffffffffffffffffffffffffffffffffffffffff168152602001908152602001600020805480602002602001604051908101604052809291908181526020016000905b8282101561169c57838290600052602060002090600502016040518060c001604052908160008201805461146c9061242c565b80601f01602080910402602001604051908101604052809291908181526020018280546114989061242c565b80156114e55780601f106114ba576101008083540402835291602001916114e5565b820191906000526020600020905b8154815290600101906020018083116114c857829003601f168201915b505050505081526020016001820180546114fe9061242c565b80601f016020809104026020016040519081016040528092919081815260200182805461152a9061242c565b80156115775780601f1061154c57610100808354040283529160200191611577565b820191906000526020600020905b81548152906001019060200180831161155a57829003601f168201915b505050505081526020016002820180546115909061242c565b80601f01602080910402602001604051908101604052809291908181526020018280546115bc9061242c565b80156116095780601f106115de57610100808354040283529160200191611609565b820191906000526020600020905b8154815290600101906020018083116115ec57829003601f168201915b50505050508152602001600382015481526020016004820160009054906101000a900473ffffffffffffffffffffffffffffffffffffffff1673ffffffffffffffffffffffffffffffffffffffff1673ffffffffffffffffffffffffffffffffffffffff1681526020016004820160149054906101000a900460ff16151515158152505081526020019060010190611439565b505050509050919050565b60008054906101000a900473ffffffffffffffffffffffffffffffffffffffff1673ffffffffffffffffffffffffffffffffffffffff1663c3c5a547336040518263ffffffff1660e01b815260040161170091906121a5565b602060405180830381865afa15801561171d573d6000803e3d6000fd5b505050506040513d601f19601f8201168201806040525081019061174191906121ec565b611780576040517f08c379a000000000000000000000000000000000000000000000000000000000815260040161177790612265565b60405180910390fd5b600160008273ffffffffffffffffffffffffffffffffffffffff1673ffffffffffffffffffffffffffffffffffffffff1681526020019081526020016000206040518060c001604052808781526020018681526020018581526020018481526020018373ffffffffffffffffffffffffffffffffffffffff16815260200160001515815250908060018154018082558091505060019003906000526020600020906005020160009091909190915060008201518160000190816118439190612609565b5060208201518160010190816118599190612609565b50604082015181600201908161186f9190612609565b506060820151816003015560808201518160040160006101000a81548173ffffffffffffffffffffffffffffffffffffffff021916908373ffffffffffffffffffffffffffffffffffffffff16021790555060a08201518160040160146101000a81548160ff02191690831515021790555050508073ffffffffffffffffffffffffffffffffffffffff167f5fabd358cac1d713f5587eb9d13ac05655c14c8e6e4068a828207de7049158448686868660405161192f94939291906126db565b60405180910390a25050505050565b6000604051905090565b600080fd5b600080fd5b600080fd5b600080fd5b6000601f19601f8301169050919050565b7f4e487b7100000000000000000000000000000000000000000000000000000000600052604160045260246000fd5b6119a58261195c565b810181811067ffffffffffffffff821117156119c4576119c361196d565b5b80604052505050565b60006119d761193e565b90506119e3828261199c565b919050565b600067ffffffffffffffff821115611a0357611a0261196d565b5b611a0c8261195c565b9050602081019050919050565b82818337600083830152505050565b6000611a3b611a36846119e8565b6119cd565b905082815260208101848484011115611a5757611a56611957565b5b611a62848285611a19565b509392505050565b600082601f830112611a7f57611a7e611952565b5b8135611a8f848260208601611a28565b91505092915050565b6000819050919050565b611aab81611a98565b8114611ab657600080fd5b50565b600081359050611ac881611aa2565b92915050565b60008060008060808587031215611ae857611ae7611948565b5b600085013567ffffffffffffffff811115611b0657611b0561194d565b5b611b1287828801611a6a565b945050602085013567ffffffffffffffff811115611b3357611b3261194d565b5b611b3f87828801611a6a565b935050604085013567ffffffffffffffff811115611b6057611b5f61194d565b5b611b6c87828801611a6a565b9250506060611b7d87828801611ab9565b91505092959194509250565b600073ffffffffffffffffffffffffffffffffffffffff82169050919050565b6000611bb482611b89565b9050919050565b611bc481611ba9565b8114611bcf57600080fd5b50565b600081359050611be181611bbb565b92915050565b600060208284031215611bfd57611bfc611948565b5b6000611c0b84828501611bd2565b91505092915050565b60008060408385031215611c2b57611c2a611948565b5b6000611c3985828601611bd2565b9250506020611c4a85828601611bd2565b9150509250929050565b60008115159050919050565b611c6981611c54565b82525050565b6000602082019050611c846000830184611c60565b92915050565b600081519050919050565b600082825260208201905092915050565b6000819050602082019050919050565b611cbf81611ba9565b82525050565b6000611cd18383611cb6565b60208301905092915050565b6000602082019050919050565b6000611cf582611c8a565b611cff8185611c95565b9350611d0a83611ca6565b8060005b83811015611d3b578151611d228882611cc5565b9750611d2d83611cdd565b925050600181019050611d0e565b5085935050505092915050565b60006020820190508181036000830152611d628184611cea565b905092915050565b6000819050919050565b611d7d81611d6a565b8114611d8857600080fd5b50565b600081359050611d9a81611d74565b92915050565b60008060408385031215611db757611db6611948565b5b6000611dc585828601611bd2565b9250506020611dd685828601611d8b565b9150509250929050565b600081519050919050565b600082825260208201905092915050565b60005b83811015611e1a578082015181840152602081019050611dff565b60008484015250505050565b6000611e3182611de0565b611e3b8185611deb565b9350611e4b818560208601611dfc565b611e548161195c565b840191505092915050565b611e6881611a98565b82525050565b611e7781611ba9565b82525050565b600060c0820190508181036000830152611e978189611e26565b90508181036020830152611eab8188611e26565b90508181036040830152611ebf8187611e26565b9050611ece6060830186611e5f565b611edb6080830185611e6e565b611ee860a0830184611c60565b979650505050505050565b600081519050919050565b600082825260208201905092915050565b6000819050602082019050919050565b600082825260208201905092915050565b6000611f3b82611de0565b611f458185611f1f565b9350611f55818560208601611dfc565b611f5e8161195c565b840191505092915050565b611f7281611a98565b82525050565b611f8181611c54565b82525050565b600060c0830160008301518482036000860152611fa48282611f30565b91505060208301518482036020860152611fbe8282611f30565b91505060408301518482036040860152611fd88282611f30565b9150506060830151611fed6060860182611f69565b5060808301516120006080860182611cb6565b5060a083015161201360a0860182611f78565b508091505092915050565b600061202a8383611f87565b905092915050565b6000602082019050919050565b600061204a82611ef3565b6120548185611efe565b93508360208202850161206685611f0f565b8060005b858110156120a25784840389528151612083858261201e565b945061208e83612032565b925060208a0199505060018101905061206a565b50829750879550505050505092915050565b600060208201905081810360008301526120ce818461203f565b905092915050565b600080600080600060a086880312156120f2576120f1611948565b5b600086013567ffffffffffffffff8111156121105761210f61194d565b5b61211c88828901611a6a565b955050602086013567ffffffffffffffff81111561213d5761213c61194d565b5b61214988828901611a6a565b945050604086013567ffffffffffffffff81111561216a5761216961194d565b5b61217688828901611a6a565b935050606061218788828901611ab9565b925050608061219888828901611bd2565b9150509295509295909350565b60006020820190506121ba6000830184611e6e565b92915050565b6121c981611c54565b81146121d457600080fd5b50565b6000815190506121e6816121c0565b92915050565b60006020828403121561220257612201611948565b5b6000612210848285016121d7565b91505092915050565b7f55736572206e6f74207265676973746572656400000000000000000000000000600082015250565b600061224f601383611deb565b915061225a82612219565b602082019050919050565b6000602082019050818103600083015261227e81612242565b9050919050565b6000612298612293846119e8565b6119cd565b9050828152602081018484840111156122b4576122b3611957565b5b6122bf848285611dfc565b509392505050565b600082601f8301126122dc576122db611952565b5b81516122ec848260208601612285565b91505092915050565b60006020828403121561230b5761230a611948565b5b600082015167ffffffffffffffff8111156123295761232861194d565b5b612335848285016122c7565b91505092915050565b600081905092915050565b600061235482611de0565b61235e818561233e565b935061236e818560208601611dfc565b80840191505092915050565b60006123868284612349565b915081905092915050565b7f4f6e6c792070617469656e74732063616e2075706c6f6164207265636f726473600082015250565b60006123c7602083611deb565b91506123d282612391565b602082019050919050565b600060208201905081810360008301526123f6816123ba565b9050919050565b7f4e487b7100000000000000000000000000000000000000000000000000000000600052602260045260246000fd5b6000600282049050600182168061244457607f821691505b602082108103612457576124566123fd565b5b50919050565b60008190508160005260206000209050919050565b60006020601f8301049050919050565b600082821b905092915050565b6000600883026124bf7fffffffffffffffffffffffffffffffffffffffffffffffffffffffffffffffff82612482565b6124c98683612482565b95508019841693508086168417925050509392505050565b6000819050919050565b60006125066125016124fc84611d6a565b6124e1565b611d6a565b9050919050565b6000819050919050565b612520836124eb565b61253461252c8261250d565b84845461248f565b825550505050565b600090565b61254961253c565b612554818484612517565b505050565b5b818110156125785761256d600082612541565b60018101905061255a565b5050565b601f8211156125bd5761258e8161245d565b61259784612472565b810160208510156125a6578190505b6125ba6125b285612472565b830182612559565b50505b505050565b600082821c905092915050565b60006125e0600019846008026125c2565b1980831691505092915050565b60006125f983836125cf565b9150826002028217905092915050565b61261282611de0565b67ffffffffffffffff81111561262b5761262a61196d565b5b612635825461242c565b61264082828561257c565b600060209050601f8311600181146126735760008415612661578287015190505b61266b85826125ed565b8655506126d3565b601f1984166126818661245d565b60005b828110156126a957848901518255600182019150602085019450602081019050612684565b868310156126c657848901516126c2601f8916826125cf565b8355505b6001600288020188555050505b505050505050565b600060808201905081810360008301526126f58187611e26565b905081810360208301526127098186611e26565b9050818103604083015261271d8185611e26565b905061272c6060830184611e5f565b95945050505050565b7f4f6e6c792070617469656e74732063616e206772616e74206163636573730000600082015250565b600061276b601e83611deb565b915061277682612735565b602082019050919050565b6000602082019050818103600083015261279a8161275e565b9050919050565b7f4e6f7420612076616c696420646f63746f720000000000000000000000000000600082015250565b60006127d7601283611deb565b91506127e2826127a1565b602082019050919050565b60006020820190508181036000830152612806816127ca565b9050919050565b600067ffffffffffffffff8211156128285761282761196d565b5b602082029050602081019050919050565b600080fd5b60008151905061284d81611bbb565b92915050565b60006128666128618461280d565b6119cd565b9050808382526020820190506020840283018581111561288957612888612839565b5b835b818110156128b2578061289e888261283e565b84526020840193505060208101905061288b565b5050509392505050565b600082601f8301126128d1576128d0611952565b5b81516128e1848260208601612853565b91505092915050565b600060208284031215612900576128ff611948565b5b600082015167ffffffffffffffff81111561291e5761291d61194d565b5b61292a848285016128bc565b91505092915050565b7f4e487b7100000000000000000000000000000000000000000000000000000000600052603260045260246000fd5b7f4e487b7100000000000000000000000000000000000000000000000000000000600052601160045260246000fd5b600061299c82611d6a565b91507fffffffffffffffffffffffffffffffffffffffffffffffffffffffffffffffff82036129ce576129cd612962565b5b600182019050919050565b7f416363657373206e6f74206772616e7465640000000000000000000000000000600082015250565b6000612a0f601283611deb565b9150612a1a826129d9565b602082019050919050565b60006020820190508181036000830152612a3e81612a02565b9050919050565b7f4163636573732064656e69656400000000000000000000000000000000000000600082015250565b6000612a7b600d83611deb565b9150612a8682612a45565b602082019050919050565b60006020820190508181036000830152612aaa81612a6e565b905091905056fea264697066735822122011589a04bffd56479623e962c40f4b81e13e6e2646219459d67ed67baa277c7464736f6c634300081c0033",
  "linkReferences": {},
  "deployedLinkReferences": {}
}