{
  "_format": "hh-sol-artifact-1",
  "contractName": "UserRegistry",
  "sourceName": "contracts/UserRegistry.sol",
  "abi": [
    {
      "anonymous": false,
      "inputs": [
        {
          "indexed": true,
          "internalType": "address",
          "name": "user",
          "type": "address"
        },
        {
          "indexed": false,
          "internalType": "string",
          "name": "userType",
          "type": "string"
        }
      ],
      "name": "UserRegistered",
      "type": "event"
    },
    {
      "inputs": [
        {
          "internalType": "uint256",
          "name": "",
          "type": "uint256"
        }
      ],
      "name": "doctors",
      "outputs": [
        {
          "internalType": "address",
          "name": "",
          "type": "address"
        }
      ],
      "stateMutability": "view",
      "type": "function"
    },
    {
      "inputs": [],
      "name": "getDoctors",
      "outputs": [
        {
          "internalType": "address[]",
          "name": "",
          "type": "address[]"
        }
      ],
      "stateMutability": "view",
      "type": "function"
    },
    {
      "inputs": [],
      "name": "getPharmacists",
      "outputs": [
        {
          "internalType": "address[]",
          "name": "",
          "type": "address[]"
        }
      ],
      "stateMutability": "view",
      "type": "function"
    },
    {
      "inputs": [
        {
          "internalType": "address",
          "name": "_user",
          "type": "address"
        }
      ],
      "name": "getUserType",
      "outputs": [
        {
          "internalType": "string",
          "name": "",
          "type": "string"
        }
      ],
      "stateMutability": "view",
      "type": "function"
    },
    {
      "inputs": [
        {
          "internalType": "address",
          "name": "_user",
          "type": "address"
        }
      ],
      "name": "isDoctor",
      "outputs": [
        {
          "internalType": "bool",
          "name": "",
          "type": "bool"
        }
      ],
      "stateMutability": "view",
      "type": "function"
    },
    {
      "inputs": [
        {
          "internalType": "address",
          "name": "_user",
          "type": "address"
        }
      ],
      "name": "isPharmacist",
      "outputs": [
        {
          "internalType": "bool",
          "name": "",
          "type": "bool"
        }
      ],
      "stateMutability": "view",
      "type": "function"
    },
    {
      "inputs": [
        {
          "internalType": "address",
          "name": "_user",
          "type": "address"
        }
      ],
      "name": "isRegistered",
      "outputs": [
        {
          "internalType": "bool",
          "name": "",
          "type": "bool"
        }
      ],
      "stateMutability": "view",
      "type": "function"
    },
    {
      "inputs": [
        {
          "internalType": "uint256",
          "name": "",
          "type": "uint256"
        }
      ],
      "name": "pharmacists",
      "outputs": [
        {
          "internalType": "address",
          "name": "",
          "type": "address"
        }
      ],
      "stateMutability": "view",
      "type": "function"
    },
    {
      "inputs": [
        {
          "internalType": "string",
          "name": "_userType",
          "type": "string"
        }
      ],
      "name": "registerUser",
      "outputs": [],
      "stateMutability": "nonpayable",
      "type": "function"
    },
    {
      "inputs": [
        {
          "internalType": "address",
          "name": "",
          "type": "address"
        }
      ],
      "name": "users",
      "outputs": [
        {
          "internalType": "string",
          "name": "userType",
          "type": "string"
        },
        {
          "internalType": "bool",
          "name": "registered",
          "type": "bool"
        }
      ],
      "stateMutability": "view",
      "type": "function"
    }
  ],
  "bytecode": "0x6080604052348015600f57600080fd5b506114b78061001f6000396000f3fe608060405234801561001057600080fd5b506004361061009e5760003560e01c8063996440c611610066578063996440c61461017f578063a87430ba146101af578063b13d5d94146101e0578063c3c5a547146101fe578063fbe362b11461022e5761009e565b80636efb1b84146100a35780636f568a18146100d3578063704f1b941461010357806382946ee21461011f5780638b3f863f1461014f575b600080fd5b6100bd60048036038101906100b89190610b86565b61024c565b6040516100ca9190610bf4565b60405180910390f35b6100ed60048036038101906100e89190610b86565b61028b565b6040516100fa9190610bf4565b60405180910390f35b61011d60048036038101906101189190610d55565b6102ca565b005b61013960048036038101906101349190610dca565b610718565b6040516101469190610e12565b60405180910390f35b61016960048036038101906101649190610dca565b6107aa565b6040516101769190610eac565b60405180910390f35b61019960048036038101906101949190610dca565b61087d565b6040516101a69190610e12565b60405180910390f35b6101c960048036038101906101c49190610dca565b61090f565b6040516101d7929190610ece565b60405180910390f35b6101e86109c8565b6040516101f59190610fbc565b60405180910390f35b61021860048036038101906102139190610dca565b610a56565b6040516102259190610e12565b60405180910390f35b610236610aae565b6040516102439190610fbc565b60405180910390f35b6001818154811061025c57600080fd5b906000526020600020016000915054906101000a900473ffffffffffffffffffffffffffffffffffffffff1681565b6002818154811061029b57600080fd5b906000526020600020016000915054906101000a900473ffffffffffffffffffffffffffffffffffffffff1681565b6000803373ffffffffffffffffffffffffffffffffffffffff1673ffffffffffffffffffffffffffffffffffffffff16815260200190815260200160002060010160009054906101000a900460ff1615610359576040517f08c379a00000000000000000000000000000000000000000000000000000000081526004016103509061102a565b60405180910390fd5b7fdc3b9d7fd28cfc7a70a999f2eb4b60672e6b88c8ed3280f4fb467b501b62b92e8160405160200161038b9190611086565b6040516020818303038152906040528051906020012014806103f257507fec03945fa2196716a09674e2cd6a57153479ecb05ea91e189e2688f793ab5381816040516020016103da9190611086565b60405160208183030381529060405280519060200120145b8061044257507f09db29ab0e952126c578a1f0ad50fa65a6af6fe9b80ae6bbb91274e5ebcbc32d8160405160200161042a9190611086565b60405160208183030381529060405280519060200120145b8061049257507f40bb73213109f45f00df6bf95bfd9cb6b7654176ccedf0394211c241f86f475c8160405160200161047a9190611086565b60405160208183030381529060405280519060200120145b6104d1576040517f08c379a00000000000000000000000000000000000000000000000000000000081526004016104c8906110e9565b60405180910390fd5b6040518060400160405280828152602001600115158152506000803373ffffffffffffffffffffffffffffffffffffffff1673ffffffffffffffffffffffffffffffffffffffff168152602001908152602001600020600082015181600001908161053c9190611315565b5060208201518160010160006101000a81548160ff0219169083151502179055509050507fec03945fa2196716a09674e2cd6a57153479ecb05ea91e189e2688f793ab5381816040516020016105929190611086565b6040516020818303038152906040528051906020012003610615576001339080600181540180825580915050600190039060005260206000200160009091909190916101000a81548173ffffffffffffffffffffffffffffffffffffffff021916908373ffffffffffffffffffffffffffffffffffffffff1602179055506106c7565b7f40bb73213109f45f00df6bf95bfd9cb6b7654176ccedf0394211c241f86f475c816040516020016106479190611086565b60405160208183030381529060405280519060200120036106c6576002339080600181540180825580915050600190039060005260206000200160009091909190916101000a81548173ffffffffffffffffffffffffffffffffffffffff021916908373ffffffffffffffffffffffffffffffffffffffff1602179055505b5b3373ffffffffffffffffffffffffffffffffffffffff167f48cac28ad4dc618e15f4c2dd5e97751182f166de97b25618318b2112aa951a2f8260405161070d9190610eac565b60405180910390a250565b60007f40bb73213109f45f00df6bf95bfd9cb6b7654176ccedf0394211c241f86f475c6000808473ffffffffffffffffffffffffffffffffffffffff1673ffffffffffffffffffffffffffffffffffffffff16815260200190815260200160002060000160405160200161078c919061146a565b60405160208183030381529060405280519060200120149050919050565b60606000808373ffffffffffffffffffffffffffffffffffffffff1673ffffffffffffffffffffffffffffffffffffffff16815260200190815260200160002060000180546107f890611138565b80601f016020809104026020016040519081016040528092919081815260200182805461082490611138565b80156108715780601f1061084657610100808354040283529160200191610871565b820191906000526020600020905b81548152906001019060200180831161085457829003601f168201915b50505050509050919050565b60007fec03945fa2196716a09674e2cd6a57153479ecb05ea91e189e2688f793ab53816000808473ffffffffffffffffffffffffffffffffffffffff1673ffffffffffffffffffffffffffffffffffffffff1681526020019081526020016000206000016040516020016108f1919061146a565b60405160208183030381529060405280519060200120149050919050565b600060205280600052604060002060009150905080600001805461093290611138565b80601f016020809104026020016040519081016040528092919081815260200182805461095e90611138565b80156109ab5780601f10610980576101008083540402835291602001916109ab565b820191906000526020600020905b81548152906001019060200180831161098e57829003601f168201915b5050505050908060010160009054906101000a900460ff16905082565b60606001805480602002602001604051908101604052809291908181526020018280548015610a4c57602002820191906000526020600020905b8160009054906101000a900473ffffffffffffffffffffffffffffffffffffffff1673ffffffffffffffffffffffffffffffffffffffff1681526020019060010190808311610a02575b5050505050905090565b60008060008373ffffffffffffffffffffffffffffffffffffffff1673ffffffffffffffffffffffffffffffffffffffff16815260200190815260200160002060010160009054906101000a900460ff169050919050565b60606002805480602002602001604051908101604052809291908181526020018280548015610b3257602002820191906000526020600020905b8160009054906101000a900473ffffffffffffffffffffffffffffffffffffffff1673ffffffffffffffffffffffffffffffffffffffff1681526020019060010190808311610ae8575b5050505050905090565b6000604051905090565b600080fd5b600080fd5b6000819050919050565b610b6381610b50565b8114610b6e57600080fd5b50565b600081359050610b8081610b5a565b92915050565b600060208284031215610b9c57610b9b610b46565b5b6000610baa84828501610b71565b91505092915050565b600073ffffffffffffffffffffffffffffffffffffffff82169050919050565b6000610bde82610bb3565b9050919050565b610bee81610bd3565b82525050565b6000602082019050610c096000830184610be5565b92915050565b600080fd5b600080fd5b6000601f19601f8301169050919050565b7f4e487b7100000000000000000000000000000000000000000000000000000000600052604160045260246000fd5b610c6282610c19565b810181811067ffffffffffffffff82111715610c8157610c80610c2a565b5b80604052505050565b6000610c94610b3c565b9050610ca08282610c59565b919050565b600067ffffffffffffffff821115610cc057610cbf610c2a565b5b610cc982610c19565b9050602081019050919050565b82818337600083830152505050565b6000610cf8610cf384610ca5565b610c8a565b905082815260208101848484011115610d1457610d13610c14565b5b610d1f848285610cd6565b509392505050565b600082601f830112610d3c57610d3b610c0f565b5b8135610d4c848260208601610ce5565b91505092915050565b600060208284031215610d6b57610d6a610b46565b5b600082013567ffffffffffffffff811115610d8957610d88610b4b565b5b610d9584828501610d27565b91505092915050565b610da781610bd3565b8114610db257600080fd5b50565b600081359050610dc481610d9e565b92915050565b600060208284031215610de057610ddf610b46565b5b6000610dee84828501610db5565b91505092915050565b60008115159050919050565b610e0c81610df7565b82525050565b6000602082019050610e276000830184610e03565b92915050565b600081519050919050565b600082825260208201905092915050565b60005b83811015610e67578082015181840152602081019050610e4c565b60008484015250505050565b6000610e7e82610e2d565b610e888185610e38565b9350610e98818560208601610e49565b610ea181610c19565b840191505092915050565b60006020820190508181036000830152610ec68184610e73565b905092915050565b60006040820190508181036000830152610ee88185610e73565b9050610ef76020830184610e03565b9392505050565b600081519050919050565b600082825260208201905092915050565b6000819050602082019050919050565b610f3381610bd3565b82525050565b6000610f458383610f2a565b60208301905092915050565b6000602082019050919050565b6000610f6982610efe565b610f738185610f09565b9350610f7e83610f1a565b8060005b83811015610faf578151610f968882610f39565b9750610fa183610f51565b925050600181019050610f82565b5085935050505092915050565b60006020820190508181036000830152610fd68184610f5e565b905092915050565b7f5573657220616c72656164792072656769737465726564000000000000000000600082015250565b6000611014601783610e38565b915061101f82610fde565b602082019050919050565b6000602082019050818103600083015261104381611007565b9050919050565b600081905092915050565b600061106082610e2d565b61106a818561104a565b935061107a818560208601610e49565b80840191505092915050565b60006110928284611055565b915081905092915050565b7f496e76616c696420757365722074797065000000000000000000000000000000600082015250565b60006110d3601183610e38565b91506110de8261109d565b602082019050919050565b60006020820190508181036000830152611102816110c6565b9050919050565b7f4e487b7100000000000000000000000000000000000000000000000000000000600052602260045260246000fd5b6000600282049050600182168061115057607f821691505b60208210810361116357611162611109565b5b50919050565b60008190508160005260206000209050919050565b60006020601f8301049050919050565b600082821b905092915050565b6000600883026111cb7fffffffffffffffffffffffffffffffffffffffffffffffffffffffffffffffff8261118e565b6111d5868361118e565b95508019841693508086168417925050509392505050565b6000819050919050565b600061121261120d61120884610b50565b6111ed565b610b50565b9050919050565b6000819050919050565b61122c836111f7565b61124061123882611219565b84845461119b565b825550505050565b600090565b611255611248565b611260818484611223565b505050565b5b818110156112845761127960008261124d565b600181019050611266565b5050565b601f8211156112c95761129a81611169565b6112a38461117e565b810160208510156112b2578190505b6112c66112be8561117e565b830182611265565b50505b505050565b600082821c905092915050565b60006112ec600019846008026112ce565b1980831691505092915050565b600061130583836112db565b9150826002028217905092915050565b61131e82610e2d565b67ffffffffffffffff81111561133757611336610c2a565b5b6113418254611138565b61134c828285611288565b600060209050601f83116001811461137f576000841561136d578287015190505b61137785826112f9565b8655506113df565b601f19841661138d86611169565b60005b828110156113b557848901518255600182019150602085019450602081019050611390565b868310156113d257848901516113ce601f8916826112db565b8355505b6001600288020188555050505b505050505050565b600081546113f481611138565b6113fe818661104a565b94506001821660008114611419576001811461142e57611461565b60ff1983168652811515820286019350611461565b61143785611169565b60005b838110156114595781548189015260018201915060208101905061143a565b838801955050505b50505092915050565b600061147682846113e7565b91508190509291505056fea2646970667358221220d130bbe86657b3cea17ac0ca525ae2ebcf74175ab37d5fde454873a80f1565b964736f6c634300081c0033",
  "linkReferences": {},
  "deployedLinkReferences": {}
}